{
  "_format": "hh-sol-artifact-1",
  "contractName": "CertificateRegistry",
  "sourceName": "contracts/CertificateRegistry.sol",
  "abi": [
    {
      "inputs": [],
      "stateMutability": "nonpayable",
      "type": "constructor"
    },
    {
      "inputs": [],
      "name": "AccessControlBadConfirmation",
      "type": "error"
    },
    {
      "inputs": [
        {
          "internalType": "address",
          "name": "account",
          "type": "address"
        },
        {
          "internalType": "bytes32",
          "name": "neededRole",
          "type": "bytes32"
        }
      ],
      "name": "AccessControlUnauthorizedAccount",
      "type": "error"
    },
    {
      "inputs": [
        {
          "internalType": "address",
          "name": "sender",
          "type": "address"
        },
        {
          "internalType": "uint256",
          "name": "tokenId",
          "type": "uint256"
        },
        {
          "internalType": "address",
          "name": "owner",
          "type": "address"
        }
      ],
      "name": "ERC721IncorrectOwner",
      "type": "error"
    },
    {
      "inputs": [
        {
          "internalType": "address",
          "name": "operator",
          "type": "address"
        },
        {
          "internalType": "uint256",
          "name": "tokenId",
          "type": "uint256"
        }
      ],
      "name": "ERC721InsufficientApproval",
      "type": "error"
    },
    {
      "inputs": [
        {
          "internalType": "address",
          "name": "approver",
          "type": "address"
        }
      ],
      "name": "ERC721InvalidApprover",
      "type": "error"
    },
    {
      "inputs": [
        {
          "internalType": "address",
          "name": "operator",
          "type": "address"
        }
      ],
      "name": "ERC721InvalidOperator",
      "type": "error"
    },
    {
      "inputs": [
        {
          "internalType": "address",
          "name": "owner",
          "type": "address"
        }
      ],
      "name": "ERC721InvalidOwner",
      "type": "error"
    },
    {
      "inputs": [
        {
          "internalType": "address",
          "name": "receiver",
          "type": "address"
        }
      ],
      "name": "ERC721InvalidReceiver",
      "type": "error"
    },
    {
      "inputs": [
        {
          "internalType": "address",
          "name": "sender",
          "type": "address"
        }
      ],
      "name": "ERC721InvalidSender",
      "type": "error"
    },
    {
      "inputs": [
        {
          "internalType": "uint256",
          "name": "tokenId",
          "type": "uint256"
        }
      ],
      "name": "ERC721NonexistentToken",
      "type": "error"
    },
    {
      "anonymous": false,
      "inputs": [
        {
          "indexed": true,
          "internalType": "address",
          "name": "owner",
          "type": "address"
        },
        {
          "indexed": true,
          "internalType": "address",
          "name": "approved",
          "type": "address"
        },
        {
          "indexed": true,
          "internalType": "uint256",
          "name": "tokenId",
          "type": "uint256"
        }
      ],
      "name": "Approval",
      "type": "event"
    },
    {
      "anonymous": false,
      "inputs": [
        {
          "indexed": true,
          "internalType": "address",
          "name": "owner",
          "type": "address"
        },
        {
          "indexed": true,
          "internalType": "address",
          "name": "operator",
          "type": "address"
        },
        {
          "indexed": false,
          "internalType": "bool",
          "name": "approved",
          "type": "bool"
        }
      ],
      "name": "ApprovalForAll",
      "type": "event"
    },
    {
      "anonymous": false,
      "inputs": [
        {
          "indexed": false,
          "internalType": "uint256",
          "name": "_fromTokenId",
          "type": "uint256"
        },
        {
          "indexed": false,
          "internalType": "uint256",
          "name": "_toTokenId",
          "type": "uint256"
        }
      ],
      "name": "BatchMetadataUpdate",
      "type": "event"
    },
    {
      "anonymous": false,
      "inputs": [
        {
          "indexed": true,
          "internalType": "string",
          "name": "certificateId",
          "type": "string"
        },
        {
          "indexed": true,
          "internalType": "uint256",
          "name": "tokenId",
          "type": "uint256"
        },
        {
          "indexed": false,
          "internalType": "string",
          "name": "studentName",
          "type": "string"
        },
        {
          "indexed": true,
          "internalType": "address",
          "name": "recipient",
          "type": "address"
        },
        {
          "indexed": false,
          "internalType": "address",
          "name": "issuer",
          "type": "address"
        }
      ],
      "name": "CertificateIssued",
      "type": "event"
    },
    {
      "anonymous": false,
      "inputs": [
        {
          "indexed": true,
          "internalType": "string",
          "name": "certificateId",
          "type": "string"
        },
        {
          "indexed": true,
          "internalType": "uint256",
          "name": "tokenId",
          "type": "uint256"
        },
        {
          "indexed": true,
          "internalType": "address",
          "name": "revoker",
          "type": "address"
        }
      ],
      "name": "CertificateRevoked",
      "type": "event"
    },
    {
      "anonymous": false,
      "inputs": [
        {
          "indexed": false,
          "internalType": "uint256",
          "name": "_tokenId",
          "type": "uint256"
        }
      ],
      "name": "MetadataUpdate",
      "type": "event"
    },
    {
      "anonymous": false,
      "inputs": [
        {
          "indexed": true,
          "internalType": "bytes32",
          "name": "role",
          "type": "bytes32"
        },
        {
          "indexed": true,
          "internalType": "bytes32",
          "name": "previousAdminRole",
          "type": "bytes32"
        },
        {
          "indexed": true,
          "internalType": "bytes32",
          "name": "newAdminRole",
          "type": "bytes32"
        }
      ],
      "name": "RoleAdminChanged",
      "type": "event"
    },
    {
      "anonymous": false,
      "inputs": [
        {
          "indexed": true,
          "internalType": "bytes32",
          "name": "role",
          "type": "bytes32"
        },
        {
          "indexed": true,
          "internalType": "address",
          "name": "account",
          "type": "address"
        },
        {
          "indexed": true,
          "internalType": "address",
          "name": "sender",
          "type": "address"
        }
      ],
      "name": "RoleGranted",
      "type": "event"
    },
    {
      "anonymous": false,
      "inputs": [
        {
          "indexed": true,
          "internalType": "bytes32",
          "name": "role",
          "type": "bytes32"
        },
        {
          "indexed": true,
          "internalType": "address",
          "name": "account",
          "type": "address"
        },
        {
          "indexed": true,
          "internalType": "address",
          "name": "sender",
          "type": "address"
        }
      ],
      "name": "RoleRevoked",
      "type": "event"
    },
    {
      "anonymous": false,
      "inputs": [
        {
          "indexed": true,
          "internalType": "address",
          "name": "from",
          "type": "address"
        },
        {
          "indexed": true,
          "internalType": "address",
          "name": "to",
          "type": "address"
        },
        {
          "indexed": true,
          "internalType": "uint256",
          "name": "tokenId",
          "type": "uint256"
        }
      ],
      "name": "Transfer",
      "type": "event"
    },
    {
      "inputs": [],
      "name": "DEFAULT_ADMIN_ROLE",
      "outputs": [
        {
          "internalType": "bytes32",
          "name": "",
          "type": "bytes32"
        }
      ],
      "stateMutability": "view",
      "type": "function"
    },
    {
      "inputs": [],
      "name": "ISSUER_ROLE",
      "outputs": [
        {
          "internalType": "bytes32",
          "name": "",
          "type": "bytes32"
        }
      ],
      "stateMutability": "view",
      "type": "function"
    },
    {
      "inputs": [
        {
          "internalType": "address",
          "name": "to",
          "type": "address"
        },
        {
          "internalType": "uint256",
          "name": "tokenId",
          "type": "uint256"
        }
      ],
      "name": "approve",
      "outputs": [],
      "stateMutability": "nonpayable",
      "type": "function"
    },
    {
      "inputs": [
        {
          "internalType": "address",
          "name": "owner",
          "type": "address"
        }
      ],
      "name": "balanceOf",
      "outputs": [
        {
          "internalType": "uint256",
          "name": "",
          "type": "uint256"
        }
      ],
      "stateMutability": "view",
      "type": "function"
    },
    {
      "inputs": [
        {
          "internalType": "address[]",
          "name": "tos",
          "type": "address[]"
        },
        {
          "internalType": "string[]",
          "name": "certificateIds",
          "type": "string[]"
        },
        {
          "internalType": "string[]",
          "name": "studentNames",
          "type": "string[]"
        },
        {
          "internalType": "string[]",
          "name": "courses",
          "type": "string[]"
        },
        {
          "internalType": "string[]",
          "name": "issueDates",
          "type": "string[]"
        },
        {
          "internalType": "string[]",
          "name": "issuerNames",
          "type": "string[]"
        },
        {
          "internalType": "string[]",
          "name": "uris",
          "type": "string[]"
        }
      ],
      "name": "batchIssueCertificate",
      "outputs": [],
      "stateMutability": "nonpayable",
      "type": "function"
    },
    {
      "inputs": [
        {
          "internalType": "uint256",
          "name": "",
          "type": "uint256"
        }
      ],
      "name": "certificateDetails",
      "outputs": [
        {
          "internalType": "string",
          "name": "studentName",
          "type": "string"
        },
        {
          "internalType": "string",
          "name": "course",
          "type": "string"
        },
        {
          "internalType": "string",
          "name": "issueDate",
          "type": "string"
        },
        {
          "internalType": "string",
          "name": "issuerName",
          "type": "string"
        },
        {
          "internalType": "bool",
          "name": "isValid",
          "type": "bool"
        }
      ],
      "stateMutability": "view",
      "type": "function"
    },
    {
      "inputs": [
        {
          "internalType": "string",
          "name": "",
          "type": "string"
        }
      ],
      "name": "certificateIdToTokenId",
      "outputs": [
        {
          "internalType": "uint256",
          "name": "",
          "type": "uint256"
        }
      ],
      "stateMutability": "view",
      "type": "function"
    },
    {
      "inputs": [
        {
          "internalType": "uint256",
          "name": "tokenId",
          "type": "uint256"
        }
      ],
      "name": "getApproved",
      "outputs": [
        {
          "internalType": "address",
          "name": "",
          "type": "address"
        }
      ],
      "stateMutability": "view",
      "type": "function"
    },
    {
      "inputs": [
        {
          "internalType": "string",
          "name": "certificateId",
          "type": "string"
        }
      ],
      "name": "getCertificate",
      "outputs": [
        {
          "internalType": "string",
          "name": "studentName",
          "type": "string"
        },
        {
          "internalType": "string",
          "name": "course",
          "type": "string"
        },
        {
          "internalType": "string",
          "name": "issueDate",
          "type": "string"
        },
        {
          "internalType": "string",
          "name": "issuerName",
          "type": "string"
        },
        {
          "internalType": "string",
          "name": "metadataUri",
          "type": "string"
        },
        {
          "internalType": "bool",
          "name": "isValid",
          "type": "bool"
        },
        {
          "internalType": "address",
          "name": "owner",
          "type": "address"
        }
      ],
      "stateMutability": "view",
      "type": "function"
    },
    {
      "inputs": [
        {
          "internalType": "bytes32",
          "name": "role",
          "type": "bytes32"
        }
      ],
      "name": "getRoleAdmin",
      "outputs": [
        {
          "internalType": "bytes32",
          "name": "",
          "type": "bytes32"
        }
      ],
      "stateMutability": "view",
      "type": "function"
    },
    {
      "inputs": [
        {
          "internalType": "bytes32",
          "name": "role",
          "type": "bytes32"
        },
        {
          "internalType": "address",
          "name": "account",
          "type": "address"
        }
      ],
      "name": "grantRole",
      "outputs": [],
      "stateMutability": "nonpayable",
      "type": "function"
    },
    {
      "inputs": [
        {
          "internalType": "bytes32",
          "name": "role",
          "type": "bytes32"
        },
        {
          "internalType": "address",
          "name": "account",
          "type": "address"
        }
      ],
      "name": "hasRole",
      "outputs": [
        {
          "internalType": "bool",
          "name": "",
          "type": "bool"
        }
      ],
      "stateMutability": "view",
      "type": "function"
    },
    {
      "inputs": [
        {
          "internalType": "address",
          "name": "owner",
          "type": "address"
        },
        {
          "internalType": "address",
          "name": "operator",
          "type": "address"
        }
      ],
      "name": "isApprovedForAll",
      "outputs": [
        {
          "internalType": "bool",
          "name": "",
          "type": "bool"
        }
      ],
      "stateMutability": "view",
      "type": "function"
    },
    {
      "inputs": [
        {
          "internalType": "address",
          "name": "to",
          "type": "address"
        },
        {
          "internalType": "string",
          "name": "certificateId",
          "type": "string"
        },
        {
          "internalType": "string",
          "name": "studentName",
          "type": "string"
        },
        {
          "internalType": "string",
          "name": "course",
          "type": "string"
        },
        {
          "internalType": "string",
          "name": "issueDate",
          "type": "string"
        },
        {
          "internalType": "string",
          "name": "issuerName",
          "type": "string"
        },
        {
          "internalType": "string",
          "name": "uri",
          "type": "string"
        }
      ],
      "name": "issueCertificate",
      "outputs": [],
      "stateMutability": "nonpayable",
      "type": "function"
    },
    {
      "inputs": [],
      "name": "name",
      "outputs": [
        {
          "internalType": "string",
          "name": "",
          "type": "string"
        }
      ],
      "stateMutability": "view",
      "type": "function"
    },
    {
      "inputs": [
        {
          "internalType": "uint256",
          "name": "tokenId",
          "type": "uint256"
        }
      ],
      "name": "ownerOf",
      "outputs": [
        {
          "internalType": "address",
          "name": "",
          "type": "address"
        }
      ],
      "stateMutability": "view",
      "type": "function"
    },
    {
      "inputs": [
        {
          "internalType": "bytes32",
          "name": "role",
          "type": "bytes32"
        },
        {
          "internalType": "address",
          "name": "callerConfirmation",
          "type": "address"
        }
      ],
      "name": "renounceRole",
      "outputs": [],
      "stateMutability": "nonpayable",
      "type": "function"
    },
    {
      "inputs": [
        {
          "internalType": "string",
          "name": "certificateId",
          "type": "string"
        }
      ],
      "name": "revokeCertificate",
      "outputs": [],
      "stateMutability": "nonpayable",
      "type": "function"
    },
    {
      "inputs": [
        {
          "internalType": "bytes32",
          "name": "role",
          "type": "bytes32"
        },
        {
          "internalType": "address",
          "name": "account",
          "type": "address"
        }
      ],
      "name": "revokeRole",
      "outputs": [],
      "stateMutability": "nonpayable",
      "type": "function"
    },
    {
      "inputs": [
        {
          "internalType": "address",
          "name": "from",
          "type": "address"
        },
        {
          "internalType": "address",
          "name": "to",
          "type": "address"
        },
        {
          "internalType": "uint256",
          "name": "tokenId",
          "type": "uint256"
        }
      ],
      "name": "safeTransferFrom",
      "outputs": [],
      "stateMutability": "nonpayable",
      "type": "function"
    },
    {
      "inputs": [
        {
          "internalType": "address",
          "name": "from",
          "type": "address"
        },
        {
          "internalType": "address",
          "name": "to",
          "type": "address"
        },
        {
          "internalType": "uint256",
          "name": "tokenId",
          "type": "uint256"
        },
        {
          "internalType": "bytes",
          "name": "data",
          "type": "bytes"
        }
      ],
      "name": "safeTransferFrom",
      "outputs": [],
      "stateMutability": "pure",
      "type": "function"
    },
    {
      "inputs": [
        {
          "internalType": "address",
          "name": "operator",
          "type": "address"
        },
        {
          "internalType": "bool",
          "name": "approved",
          "type": "bool"
        }
      ],
      "name": "setApprovalForAll",
      "outputs": [],
      "stateMutability": "nonpayable",
      "type": "function"
    },
    {
      "inputs": [
        {
          "internalType": "bytes4",
          "name": "interfaceId",
          "type": "bytes4"
        }
      ],
      "name": "supportsInterface",
      "outputs": [
        {
          "internalType": "bool",
          "name": "",
          "type": "bool"
        }
      ],
      "stateMutability": "view",
      "type": "function"
    },
    {
      "inputs": [],
      "name": "symbol",
      "outputs": [
        {
          "internalType": "string",
          "name": "",
          "type": "string"
        }
      ],
      "stateMutability": "view",
      "type": "function"
    },
    {
      "inputs": [
        {
          "internalType": "uint256",
          "name": "",
          "type": "uint256"
        }
      ],
      "name": "tokenIdToCertificateId",
      "outputs": [
        {
          "internalType": "string",
          "name": "",
          "type": "string"
        }
      ],
      "stateMutability": "view",
      "type": "function"
    },
    {
      "inputs": [
        {
          "internalType": "uint256",
          "name": "tokenId",
          "type": "uint256"
        }
      ],
      "name": "tokenURI",
      "outputs": [
        {
          "internalType": "string",
          "name": "",
          "type": "string"
        }
      ],
      "stateMutability": "view",
      "type": "function"
    },
    {
      "inputs": [
        {
          "internalType": "address",
          "name": "from",
          "type": "address"
        },
        {
          "internalType": "address",
          "name": "to",
          "type": "address"
        },
        {
          "internalType": "uint256",
          "name": "tokenId",
          "type": "uint256"
        }
      ],
      "name": "transferFrom",
      "outputs": [],
      "stateMutability": "pure",
      "type": "function"
    }
  ],
  "bytecode": "0x60806040523480156200001157600080fd5b506040518060400160405280600c81526020017f43657274696679436861696e00000000000000000000000000000000000000008152506040518060400160405280600481526020017f434552540000000000000000000000000000000000000000000000000000000081525081600090816200008f9190620004e4565b508060019081620000a19190620004e4565b505050620000b96000801b33620000f360201b60201c565b50620000ec7f114e74f6ea3bd819998f78687bfcb11b140da08e9b7d222fa9c1f1ba1f2aa12233620000f360201b60201c565b50620005cb565b6000620001078383620001f760201b60201c565b620001ec5760016007600085815260200190815260200160002060000160008473ffffffffffffffffffffffffffffffffffffffff1673ffffffffffffffffffffffffffffffffffffffff16815260200190815260200160002060006101000a81548160ff021916908315150217905550620001886200026260201b60201c565b73ffffffffffffffffffffffffffffffffffffffff168273ffffffffffffffffffffffffffffffffffffffff16847f2f8788117e7eff1d82e926ec794901d17c78024a50270940304540a733656f0d60405160405180910390a460019050620001f1565b600090505b92915050565b60006007600084815260200190815260200160002060000160008373ffffffffffffffffffffffffffffffffffffffff1673ffffffffffffffffffffffffffffffffffffffff16815260200190815260200160002060009054906101000a900460ff16905092915050565b600033905090565b600081519050919050565b7f4e487b7100000000000000000000000000000000000000000000000000000000600052604160045260246000fd5b7f4e487b7100000000000000000000000000000000000000000000000000000000600052602260045260246000fd5b60006002820490506001821680620002ec57607f821691505b602082108103620003025762000301620002a4565b5b50919050565b60008190508160005260206000209050919050565b60006020601f8301049050919050565b600082821b905092915050565b6000600883026200036c7fffffffffffffffffffffffffffffffffffffffffffffffffffffffffffffffff826200032d565b6200037886836200032d565b95508019841693508086168417925050509392505050565b6000819050919050565b6000819050919050565b6000620003c5620003bf620003b98462000390565b6200039a565b62000390565b9050919050565b6000819050919050565b620003e183620003a4565b620003f9620003f082620003cc565b8484546200033a565b825550505050565b600090565b6200041062000401565b6200041d818484620003d6565b505050565b5b8181101562000445576200043960008262000406565b60018101905062000423565b5050565b601f82111562000494576200045e8162000308565b62000469846200031d565b8101602085101562000479578190505b6200049162000488856200031d565b83018262000422565b50505b505050565b600082821c905092915050565b6000620004b96000198460080262000499565b1980831691505092915050565b6000620004d48383620004a6565b9150826002028217905092915050565b620004ef826200026a565b67ffffffffffffffff8111156200050b576200050a62000275565b5b620005178254620002d3565b6200052482828562000449565b600060209050601f8311600181146200055c576000841562000547578287015190505b620005538582620004c6565b865550620005c3565b601f1984166200056c8662000308565b60005b8281101562000596578489015182556001820191506020850194506020810190506200056f565b86831015620005b65784890151620005b2601f891682620004a6565b8355505b6001600288020188555050505b505050505050565b613e2680620005db6000396000f3fe608060405234801561001057600080fd5b50600436106101a95760003560e01c80636352211e116100f9578063a217fddf11610097578063c87b56dd11610071578063c87b56dd146104f2578063d547741f14610522578063e985e9c51461053e578063ed0f2e751461056e576101a9565b8063a217fddf1461049c578063a22cb465146104ba578063b88d4fde146104d6576101a9565b806391d14854116100d357806391d148541461040257806395d89b4114610432578063970391781461045057806398db7d931461046c576101a9565b80636352211e1461038457806370a08231146103b457806382aefa24146103e4576101a9565b8063248a9ca31161016657806339a5ae9a1161014057806339a5ae9a146102e857806342842e0e1461031857806344128c871461033457806357c8653814610368576101a9565b8063248a9ca3146102805780632f2ff15d146102b057806336568abe146102cc576101a9565b806301ffc9a7146101ae57806306fdde03146101de578063081812fc146101fc578063095ea7b31461022c578063142e15421461024857806323b872dd14610264575b600080fd5b6101c860048036038101906101c391906129c0565b6105a4565b6040516101d59190612a08565b60405180910390f35b6101e66105b6565b6040516101f39190612ab3565b60405180910390f35b61021660048036038101906102119190612b0b565b610648565b6040516102239190612b79565b60405180910390f35b61024660048036038101906102419190612bc0565b610664565b005b610262600480360381019061025d9190612d35565b61067a565b005b61027e60048036038101906102799190612d7e565b6107fb565b005b61029a60048036038101906102959190612e07565b610836565b6040516102a79190612e43565b60405180910390f35b6102ca60048036038101906102c59190612e5e565b610856565b005b6102e660048036038101906102e19190612e5e565b610878565b005b61030260048036038101906102fd9190612d35565b6108f3565b60405161030f9190612ead565b60405180910390f35b610332600480360381019061032d9190612d7e565b610921565b005b61034e60048036038101906103499190612b0b565b610941565b60405161035f959493929190612ec8565b60405180910390f35b610382600480360381019061037d91906130e0565b610ba4565b005b61039e60048036038101906103999190612b0b565b610cfb565b6040516103ab9190612b79565b60405180910390f35b6103ce60048036038101906103c99190613246565b610d0d565b6040516103db9190612ead565b60405180910390f35b6103ec610dc7565b6040516103f99190612e43565b60405180910390f35b61041c60048036038101906104179190612e5e565b610deb565b6040516104299190612a08565b60405180910390f35b61043a610e56565b6040516104479190612ab3565b60405180910390f35b61046a60048036038101906104659190613273565b610ee8565b005b61048660048036038101906104819190612b0b565b61110e565b6040516104939190612ab3565b60405180910390f35b6104a46111ae565b6040516104b19190612e43565b60405180910390f35b6104d460048036038101906104cf91906133e9565b6111b5565b005b6104f060048036038101906104eb91906134ca565b6111cb565b005b61050c60048036038101906105079190612b0b565b611206565b6040516105199190612ab3565b60405180910390f35b61053c60048036038101906105379190612e5e565b611319565b005b6105586004803603810190610553919061354d565b61133b565b6040516105659190612a08565b60405180910390f35b61058860048036038101906105839190612d35565b6113cf565b60405161059b979695949392919061358d565b60405180910390f35b60006105af8261170b565b9050919050565b6060600080546105c59061364e565b80601f01602080910402602001604051908101604052809291908181526020018280546105f19061364e565b801561063e5780601f106106135761010080835404028352916020019161063e565b820191906000526020600020905b81548152906001019060200180831161062157829003601f168201915b5050505050905090565b600061065382611785565b5061065d8261180d565b9050919050565b610676828261067161184a565b611852565b5050565b7f114e74f6ea3bd819998f78687bfcb11b140da08e9b7d222fa9c1f1ba1f2aa1226106a481611864565b60006008836040516106b691906136bb565b90815260200160405180910390205490506000810361070a576040517f08c379a00000000000000000000000000000000000000000000000000000000081526004016107019061371e565b60405180910390fd5b600a600082815260200190815260200160002060040160009054906101000a900460ff1661076d576040517f08c379a00000000000000000000000000000000000000000000000000000000081526004016107649061378a565b60405180910390fd5b6000600a600083815260200190815260200160002060040160006101000a81548160ff0219169083151502179055503373ffffffffffffffffffffffffffffffffffffffff1681846040516107c291906136bb565b60405180910390207f70fa7d9a7bf3ecf0a748c340798d2365a708483be4c68239e1f2873a77d85eed60405160405180910390a4505050565b6040517f08c379a000000000000000000000000000000000000000000000000000000000815260040161082d9061381c565b60405180910390fd5b600060076000838152602001908152602001600020600101549050919050565b61085f82610836565b61086881611864565b6108728383611878565b50505050565b61088061184a565b73ffffffffffffffffffffffffffffffffffffffff168173ffffffffffffffffffffffffffffffffffffffff16146108e4576040517f6697b23200000000000000000000000000000000000000000000000000000000815260040160405180910390fd5b6108ee828261196a565b505050565b6008818051602081018201805184825260208301602085012081835280955050505050506000915090505481565b61093c838383604051806020016040528060008152506111cb565b505050565b600a6020528060005260406000206000915090508060000180546109649061364e565b80601f01602080910402602001604051908101604052809291908181526020018280546109909061364e565b80156109dd5780601f106109b2576101008083540402835291602001916109dd565b820191906000526020600020905b8154815290600101906020018083116109c057829003601f168201915b5050505050908060010180546109f29061364e565b80601f0160208091040260200160405190810160405280929190818152602001828054610a1e9061364e565b8015610a6b5780601f10610a4057610100808354040283529160200191610a6b565b820191906000526020600020905b815481529060010190602001808311610a4e57829003601f168201915b505050505090806002018054610a809061364e565b80601f0160208091040260200160405190810160405280929190818152602001828054610aac9061364e565b8015610af95780601f10610ace57610100808354040283529160200191610af9565b820191906000526020600020905b815481529060010190602001808311610adc57829003601f168201915b505050505090806003018054610b0e9061364e565b80601f0160208091040260200160405190810160405280929190818152602001828054610b3a9061364e565b8015610b875780601f10610b5c57610100808354040283529160200191610b87565b820191906000526020600020905b815481529060010190602001808311610b6a57829003601f168201915b5050505050908060040160009054906101000a900460ff16905085565b7f114e74f6ea3bd819998f78687bfcb11b140da08e9b7d222fa9c1f1ba1f2aa122610bce81611864565b8651885114610c12576040517f08c379a0000000000000000000000000000000000000000000000000000000008152600401610c0990613888565b60405180910390fd5b60005b8851811015610cf057610ce3898281518110610c3457610c336138a8565b5b6020026020010151898381518110610c4f57610c4e6138a8565b5b6020026020010151898481518110610c6a57610c696138a8565b5b6020026020010151898581518110610c8557610c846138a8565b5b6020026020010151898681518110610ca057610c9f6138a8565b5b6020026020010151898781518110610cbb57610cba6138a8565b5b6020026020010151898881518110610cd657610cd56138a8565b5b6020026020010151610ee8565b8080600101915050610c15565b505050505050505050565b6000610d0682611785565b9050919050565b60008073ffffffffffffffffffffffffffffffffffffffff168273ffffffffffffffffffffffffffffffffffffffff1603610d805760006040517f89c62b64000000000000000000000000000000000000000000000000000000008152600401610d779190612b79565b60405180910390fd5b600360008373ffffffffffffffffffffffffffffffffffffffff1673ffffffffffffffffffffffffffffffffffffffff168152602001908152602001600020549050919050565b7f114e74f6ea3bd819998f78687bfcb11b140da08e9b7d222fa9c1f1ba1f2aa12281565b60006007600084815260200190815260200160002060000160008373ffffffffffffffffffffffffffffffffffffffff1673ffffffffffffffffffffffffffffffffffffffff16815260200190815260200160002060009054906101000a900460ff16905092915050565b606060018054610e659061364e565b80601f0160208091040260200160405190810160405280929190818152602001828054610e919061364e565b8015610ede5780601f10610eb357610100808354040283529160200191610ede565b820191906000526020600020905b815481529060010190602001808311610ec157829003601f168201915b5050505050905090565b7f114e74f6ea3bd819998f78687bfcb11b140da08e9b7d222fa9c1f1ba1f2aa122610f1281611864565b6000600888604051610f2491906136bb565b90815260200160405180910390205414610f73576040517f08c379a0000000000000000000000000000000000000000000000000000000008152600401610f6a90613923565b60405180910390fd5b6000600b60008154610f8490613972565b9190508190559050610f968982611a5d565b610fa08184611a7b565b80600889604051610fb191906136bb565b90815260200160405180910390208190555087600960008381526020019081526020016000209081610fe39190613b66565b506040518060a0016040528088815260200187815260200186815260200185815260200160011515815250600a600083815260200190815260200160002060008201518160000190816110369190613b66565b50602082015181600101908161104c9190613b66565b5060408201518160020190816110629190613b66565b5060608201518160030190816110789190613b66565b5060808201518160040160006101000a81548160ff0219169083151502179055509050508873ffffffffffffffffffffffffffffffffffffffff1681896040516110c291906136bb565b60405180910390207ff5df9381d348f171b2ce5af25128b2e405ec8b2d24b9b84280ac396a7416161d8a336040516110fb929190613c38565b60405180910390a4505050505050505050565b6009602052806000526040600020600091509050805461112d9061364e565b80601f01602080910402602001604051908101604052809291908181526020018280546111599061364e565b80156111a65780601f1061117b576101008083540402835291602001916111a6565b820191906000526020600020905b81548152906001019060200180831161118957829003601f168201915b505050505081565b6000801b81565b6111c76111c061184a565b8383611ad7565b5050565b6040517f08c379a00000000000000000000000000000000000000000000000000000000081526004016111fd9061381c565b60405180910390fd5b606061121182611785565b5060006006600084815260200190815260200160002080546112329061364e565b80601f016020809104026020016040519081016040528092919081815260200182805461125e9061364e565b80156112ab5780601f10611280576101008083540402835291602001916112ab565b820191906000526020600020905b81548152906001019060200180831161128e57829003601f168201915b5050505050905060006112bc611c46565b905060008151036112d1578192505050611314565b6000825111156113065780826040516020016112ee929190613c68565b60405160208183030381529060405292505050611314565b61130f84611c5d565b925050505b919050565b61132282610836565b61132b81611864565b611335838361196a565b50505050565b6000600560008473ffffffffffffffffffffffffffffffffffffffff1673ffffffffffffffffffffffffffffffffffffffff16815260200190815260200160002060008373ffffffffffffffffffffffffffffffffffffffff1673ffffffffffffffffffffffffffffffffffffffff16815260200190815260200160002060009054906101000a900460ff16905092915050565b606080606080606060008060006008896040516113ec91906136bb565b908152602001604051809103902054905060008103611440576040517f08c379a00000000000000000000000000000000000000000000000000000000081526004016114379061371e565b60405180910390fd5b6000600a60008381526020019081526020016000206040518060a00160405290816000820180546114709061364e565b80601f016020809104026020016040519081016040528092919081815260200182805461149c9061364e565b80156114e95780601f106114be576101008083540402835291602001916114e9565b820191906000526020600020905b8154815290600101906020018083116114cc57829003601f168201915b505050505081526020016001820180546115029061364e565b80601f016020809104026020016040519081016040528092919081815260200182805461152e9061364e565b801561157b5780601f106115505761010080835404028352916020019161157b565b820191906000526020600020905b81548152906001019060200180831161155e57829003601f168201915b505050505081526020016002820180546115949061364e565b80601f01602080910402602001604051908101604052809291908181526020018280546115c09061364e565b801561160d5780601f106115e25761010080835404028352916020019161160d565b820191906000526020600020905b8154815290600101906020018083116115f057829003601f168201915b505050505081526020016003820180546116269061364e565b80601f01602080910402602001604051908101604052809291908181526020018280546116529061364e565b801561169f5780601f106116745761010080835404028352916020019161169f565b820191906000526020600020905b81548152906001019060200180831161168257829003601f168201915b505050505081526020016004820160009054906101000a900460ff161515151581525050905080600001518160200151826040015183606001516116e286611206565b85608001516116f088610cfb565b98509850985098509850985098505050919395979092949650565b60007f7965db0b000000000000000000000000000000000000000000000000000000007bffffffffffffffffffffffffffffffffffffffffffffffffffffffff1916827bffffffffffffffffffffffffffffffffffffffffffffffffffffffff1916148061177e575061177d82611cc6565b5b9050919050565b60008061179183611d27565b9050600073ffffffffffffffffffffffffffffffffffffffff168173ffffffffffffffffffffffffffffffffffffffff160361180457826040517f7e2732890000000000000000000000000000000000000000000000000000000081526004016117fb9190612ead565b60405180910390fd5b80915050919050565b60006004600083815260200190815260200160002060009054906101000a900473ffffffffffffffffffffffffffffffffffffffff169050919050565b600033905090565b61185f8383836001611d64565b505050565b6118758161187061184a565b611f29565b50565b60006118848383610deb565b61195f5760016007600085815260200190815260200160002060000160008473ffffffffffffffffffffffffffffffffffffffff1673ffffffffffffffffffffffffffffffffffffffff16815260200190815260200160002060006101000a81548160ff0219169083151502179055506118fc61184a565b73ffffffffffffffffffffffffffffffffffffffff168273ffffffffffffffffffffffffffffffffffffffff16847f2f8788117e7eff1d82e926ec794901d17c78024a50270940304540a733656f0d60405160405180910390a460019050611964565b600090505b92915050565b60006119768383610deb565b15611a525760006007600085815260200190815260200160002060000160008473ffffffffffffffffffffffffffffffffffffffff1673ffffffffffffffffffffffffffffffffffffffff16815260200190815260200160002060006101000a81548160ff0219169083151502179055506119ef61184a565b73ffffffffffffffffffffffffffffffffffffffff168273ffffffffffffffffffffffffffffffffffffffff16847ff6391f5c32d9c69d2a47ea670b442974b53935d1edc7fd64eb21e047a839171b60405160405180910390a460019050611a57565b600090505b92915050565b611a77828260405180602001604052806000815250611f7a565b5050565b80600660008481526020019081526020016000209081611a9b9190613b66565b507ff8e1a15aba9398e019f0b49df1a4fde98ee17ae345cb5f6b5e2c27f5033e8ce782604051611acb9190612ead565b60405180910390a15050565b600073ffffffffffffffffffffffffffffffffffffffff168273ffffffffffffffffffffffffffffffffffffffff1603611b4857816040517f5b08ba18000000000000000000000000000000000000000000000000000000008152600401611b3f9190612b79565b60405180910390fd5b80600560008573ffffffffffffffffffffffffffffffffffffffff1673ffffffffffffffffffffffffffffffffffffffff16815260200190815260200160002060008473ffffffffffffffffffffffffffffffffffffffff1673ffffffffffffffffffffffffffffffffffffffff16815260200190815260200160002060006101000a81548160ff0219169083151502179055508173ffffffffffffffffffffffffffffffffffffffff168373ffffffffffffffffffffffffffffffffffffffff167f17307eab39ab6107e8899845ad3d59bd9653f200f220920489ca2b5937696c3183604051611c399190612a08565b60405180910390a3505050565b606060405180602001604052806000815250905090565b6060611c6882611785565b506000611c73611c46565b90506000815111611c935760405180602001604052806000815250611cbe565b80611c9d84611f9e565b604051602001611cae929190613c68565b6040516020818303038152906040525b915050919050565b6000634906490660e01b7bffffffffffffffffffffffffffffffffffffffffffffffffffffffff1916827bffffffffffffffffffffffffffffffffffffffffffffffffffffffff19161480611d205750611d1f8261206c565b5b9050919050565b60006002600083815260200190815260200160002060009054906101000a900473ffffffffffffffffffffffffffffffffffffffff169050919050565b8080611d9d5750600073ffffffffffffffffffffffffffffffffffffffff168273ffffffffffffffffffffffffffffffffffffffff1614155b15611ed1576000611dad84611785565b9050600073ffffffffffffffffffffffffffffffffffffffff168373ffffffffffffffffffffffffffffffffffffffff1614158015611e1857508273ffffffffffffffffffffffffffffffffffffffff168173ffffffffffffffffffffffffffffffffffffffff1614155b8015611e2b5750611e29818461133b565b155b15611e6d57826040517fa9fbf51f000000000000000000000000000000000000000000000000000000008152600401611e649190612b79565b60405180910390fd5b8115611ecf57838573ffffffffffffffffffffffffffffffffffffffff168273ffffffffffffffffffffffffffffffffffffffff167f8c5be1e5ebec7d5bd14f71427d1e84f3dd0314c0f7b2291e5b200ac8c7c3b92560405160405180910390a45b505b836004600085815260200190815260200160002060006101000a81548173ffffffffffffffffffffffffffffffffffffffff021916908373ffffffffffffffffffffffffffffffffffffffff16021790555050505050565b611f338282610deb565b611f765780826040517fe2517d3f000000000000000000000000000000000000000000000000000000008152600401611f6d929190613c8c565b60405180910390fd5b5050565b611f84838361214e565b611f99611f8f61184a565b6000858585612247565b505050565b606060006001611fad846123f8565b01905060008167ffffffffffffffff811115611fcc57611fcb612c0a565b5b6040519080825280601f01601f191660200182016040528015611ffe5781602001600182028036833780820191505090505b509050600082602083010190505b600115612061578080600190039150507f3031323334353637383961626364656600000000000000000000000000000000600a86061a8153600a858161205557612054613cb5565b5b0494506000850361200c575b819350505050919050565b60007f80ac58cd000000000000000000000000000000000000000000000000000000007bffffffffffffffffffffffffffffffffffffffffffffffffffffffff1916827bffffffffffffffffffffffffffffffffffffffffffffffffffffffff1916148061213757507f5b5e139f000000000000000000000000000000000000000000000000000000007bffffffffffffffffffffffffffffffffffffffffffffffffffffffff1916827bffffffffffffffffffffffffffffffffffffffffffffffffffffffff1916145b8061214757506121468261254b565b5b9050919050565b600073ffffffffffffffffffffffffffffffffffffffff168273ffffffffffffffffffffffffffffffffffffffff16036121c05760006040517f64a0ae920000000000000000000000000000000000000000000000000000000081526004016121b79190612b79565b60405180910390fd5b60006121ce838360006125b5565b9050600073ffffffffffffffffffffffffffffffffffffffff168173ffffffffffffffffffffffffffffffffffffffff16146122425760006040517f73c6ac6e0000000000000000000000000000000000000000000000000000000081526004016122399190612b79565b60405180910390fd5b505050565b60008373ffffffffffffffffffffffffffffffffffffffff163b11156123f1578273ffffffffffffffffffffffffffffffffffffffff1663150b7a02868685856040518563ffffffff1660e01b81526004016122a69493929190613d39565b6020604051808303816000875af19250505080156122e257506040513d601f19601f820116820180604052508101906122df9190613d9a565b60015b612366573d8060008114612312576040519150601f19603f3d011682016040523d82523d6000602084013e612317565b606091505b50600081510361235e57836040517f64a0ae920000000000000000000000000000000000000000000000000000000081526004016123559190612b79565b60405180910390fd5b805160208201fd5b63150b7a0260e01b7bffffffffffffffffffffffffffffffffffffffffffffffffffffffff1916817bffffffffffffffffffffffffffffffffffffffffffffffffffffffff1916146123ef57836040517f64a0ae920000000000000000000000000000000000000000000000000000000081526004016123e69190612b79565b60405180910390fd5b505b5050505050565b600080600090507a184f03e93ff9f4daa797ed6e38ed64bf6a1f0100000000000000008310612456577a184f03e93ff9f4daa797ed6e38ed64bf6a1f010000000000000000838161244c5761244b613cb5565b5b0492506040810190505b6d04ee2d6d415b85acef81000000008310612493576d04ee2d6d415b85acef8100000000838161248957612488613cb5565b5b0492506020810190505b662386f26fc1000083106124c257662386f26fc1000083816124b8576124b7613cb5565b5b0492506010810190505b6305f5e10083106124eb576305f5e10083816124e1576124e0613cb5565b5b0492506008810190505b612710831061251057612710838161250657612505613cb5565b5b0492506004810190505b60648310612533576064838161252957612528613cb5565b5b0492506002810190505b600a8310612542576001810190505b80915050919050565b60007f01ffc9a7000000000000000000000000000000000000000000000000000000007bffffffffffffffffffffffffffffffffffffffffffffffffffffffff1916827bffffffffffffffffffffffffffffffffffffffffffffffffffffffff1916149050919050565b6000806125c184611d27565b9050600073ffffffffffffffffffffffffffffffffffffffff168373ffffffffffffffffffffffffffffffffffffffff1614612603576126028184866127cf565b5b600073ffffffffffffffffffffffffffffffffffffffff168173ffffffffffffffffffffffffffffffffffffffff161461269457612645600085600080611d64565b6001600360008373ffffffffffffffffffffffffffffffffffffffff1673ffffffffffffffffffffffffffffffffffffffff168152602001908152602001600020600082825403925050819055505b600073ffffffffffffffffffffffffffffffffffffffff168573ffffffffffffffffffffffffffffffffffffffff1614612717576001600360008773ffffffffffffffffffffffffffffffffffffffff1673ffffffffffffffffffffffffffffffffffffffff168152602001908152602001600020600082825401925050819055505b846002600086815260200190815260200160002060006101000a81548173ffffffffffffffffffffffffffffffffffffffff021916908373ffffffffffffffffffffffffffffffffffffffff160217905550838573ffffffffffffffffffffffffffffffffffffffff168273ffffffffffffffffffffffffffffffffffffffff167fddf252ad1be2c89b69c2b068fc378daa952ba7f163c4a11628f55a4df523b3ef60405160405180910390a4809150509392505050565b6127da838383612893565b61288e57600073ffffffffffffffffffffffffffffffffffffffff168373ffffffffffffffffffffffffffffffffffffffff160361284f57806040517f7e2732890000000000000000000000000000000000000000000000000000000081526004016128469190612ead565b60405180910390fd5b81816040517f177e802f000000000000000000000000000000000000000000000000000000008152600401612885929190613dc7565b60405180910390fd5b505050565b60008073ffffffffffffffffffffffffffffffffffffffff168373ffffffffffffffffffffffffffffffffffffffff161415801561294b57508273ffffffffffffffffffffffffffffffffffffffff168473ffffffffffffffffffffffffffffffffffffffff16148061290c575061290b848461133b565b5b8061294a57508273ffffffffffffffffffffffffffffffffffffffff166129328361180d565b73ffffffffffffffffffffffffffffffffffffffff16145b5b90509392505050565b6000604051905090565b600080fd5b600080fd5b60007fffffffff0000000000000000000000000000000000000000000000000000000082169050919050565b61299d81612968565b81146129a857600080fd5b50565b6000813590506129ba81612994565b92915050565b6000602082840312156129d6576129d561295e565b5b60006129e4848285016129ab565b91505092915050565b60008115159050919050565b612a02816129ed565b82525050565b6000602082019050612a1d60008301846129f9565b92915050565b600081519050919050565b600082825260208201905092915050565b60005b83811015612a5d578082015181840152602081019050612a42565b60008484015250505050565b6000601f19601f8301169050919050565b6000612a8582612a23565b612a8f8185612a2e565b9350612a9f818560208601612a3f565b612aa881612a69565b840191505092915050565b60006020820190508181036000830152612acd8184612a7a565b905092915050565b6000819050919050565b612ae881612ad5565b8114612af357600080fd5b50565b600081359050612b0581612adf565b92915050565b600060208284031215612b2157612b2061295e565b5b6000612b2f84828501612af6565b91505092915050565b600073ffffffffffffffffffffffffffffffffffffffff82169050919050565b6000612b6382612b38565b9050919050565b612b7381612b58565b82525050565b6000602082019050612b8e6000830184612b6a565b92915050565b612b9d81612b58565b8114612ba857600080fd5b50565b600081359050612bba81612b94565b92915050565b60008060408385031215612bd757612bd661295e565b5b6000612be585828601612bab565b9250506020612bf685828601612af6565b9150509250929050565b600080fd5b600080fd5b7f4e487b7100000000000000000000000000000000000000000000000000000000600052604160045260246000fd5b612c4282612a69565b810181811067ffffffffffffffff82111715612c6157612c60612c0a565b5b80604052505050565b6000612c74612954565b9050612c808282612c39565b919050565b600067ffffffffffffffff821115612ca057612c9f612c0a565b5b612ca982612a69565b9050602081019050919050565b82818337600083830152505050565b6000612cd8612cd384612c85565b612c6a565b905082815260208101848484011115612cf457612cf3612c05565b5b612cff848285612cb6565b509392505050565b600082601f830112612d1c57612d1b612c00565b5b8135612d2c848260208601612cc5565b91505092915050565b600060208284031215612d4b57612d4a61295e565b5b600082013567ffffffffffffffff811115612d6957612d68612963565b5b612d7584828501612d07565b91505092915050565b600080600060608486031215612d9757612d9661295e565b5b6000612da586828701612bab565b9350506020612db686828701612bab565b9250506040612dc786828701612af6565b9150509250925092565b6000819050919050565b612de481612dd1565b8114612def57600080fd5b50565b600081359050612e0181612ddb565b92915050565b600060208284031215612e1d57612e1c61295e565b5b6000612e2b84828501612df2565b91505092915050565b612e3d81612dd1565b82525050565b6000602082019050612e586000830184612e34565b92915050565b60008060408385031215612e7557612e7461295e565b5b6000612e8385828601612df2565b9250506020612e9485828601612bab565b9150509250929050565b612ea781612ad5565b82525050565b6000602082019050612ec26000830184612e9e565b92915050565b600060a0820190508181036000830152612ee28188612a7a565b90508181036020830152612ef68187612a7a565b90508181036040830152612f0a8186612a7a565b90508181036060830152612f1e8185612a7a565b9050612f2d60808301846129f9565b9695505050505050565b600067ffffffffffffffff821115612f5257612f51612c0a565b5b602082029050602081019050919050565b600080fd5b6000612f7b612f7684612f37565b612c6a565b90508083825260208201905060208402830185811115612f9e57612f9d612f63565b5b835b81811015612fc75780612fb38882612bab565b845260208401935050602081019050612fa0565b5050509392505050565b600082601f830112612fe657612fe5612c00565b5b8135612ff6848260208601612f68565b91505092915050565b600067ffffffffffffffff82111561301a57613019612c0a565b5b602082029050602081019050919050565b600061303e61303984612fff565b612c6a565b9050808382526020820190506020840283018581111561306157613060612f63565b5b835b818110156130a857803567ffffffffffffffff81111561308657613085612c00565b5b8086016130938982612d07565b85526020850194505050602081019050613063565b5050509392505050565b600082601f8301126130c7576130c6612c00565b5b81356130d784826020860161302b565b91505092915050565b600080600080600080600060e0888a0312156130ff576130fe61295e565b5b600088013567ffffffffffffffff81111561311d5761311c612963565b5b6131298a828b01612fd1565b975050602088013567ffffffffffffffff81111561314a57613149612963565b5b6131568a828b016130b2565b965050604088013567ffffffffffffffff81111561317757613176612963565b5b6131838a828b016130b2565b955050606088013567ffffffffffffffff8111156131a4576131a3612963565b5b6131b08a828b016130b2565b945050608088013567ffffffffffffffff8111156131d1576131d0612963565b5b6131dd8a828b016130b2565b93505060a088013567ffffffffffffffff8111156131fe576131fd612963565b5b61320a8a828b016130b2565b92505060c088013567ffffffffffffffff81111561322b5761322a612963565b5b6132378a828b016130b2565b91505092959891949750929550565b60006020828403121561325c5761325b61295e565b5b600061326a84828501612bab565b91505092915050565b600080600080600080600060e0888a0312156132925761329161295e565b5b60006132a08a828b01612bab565b975050602088013567ffffffffffffffff8111156132c1576132c0612963565b5b6132cd8a828b01612d07565b965050604088013567ffffffffffffffff8111156132ee576132ed612963565b5b6132fa8a828b01612d07565b955050606088013567ffffffffffffffff81111561331b5761331a612963565b5b6133278a828b01612d07565b945050608088013567ffffffffffffffff81111561334857613347612963565b5b6133548a828b01612d07565b93505060a088013567ffffffffffffffff81111561337557613374612963565b5b6133818a828b01612d07565b92505060c088013567ffffffffffffffff8111156133a2576133a1612963565b5b6133ae8a828b01612d07565b91505092959891949750929550565b6133c6816129ed565b81146133d157600080fd5b50565b6000813590506133e3816133bd565b92915050565b60008060408385031215613400576133ff61295e565b5b600061340e85828601612bab565b925050602061341f858286016133d4565b9150509250929050565b600067ffffffffffffffff82111561344457613443612c0a565b5b61344d82612a69565b9050602081019050919050565b600061346d61346884613429565b612c6a565b90508281526020810184848401111561348957613488612c05565b5b613494848285612cb6565b509392505050565b600082601f8301126134b1576134b0612c00565b5b81356134c184826020860161345a565b91505092915050565b600080600080608085870312156134e4576134e361295e565b5b60006134f287828801612bab565b945050602061350387828801612bab565b935050604061351487828801612af6565b925050606085013567ffffffffffffffff81111561353557613534612963565b5b6135418782880161349c565b91505092959194509250565b600080604083850312156135645761356361295e565b5b600061357285828601612bab565b925050602061358385828601612bab565b9150509250929050565b600060e08201905081810360008301526135a7818a612a7a565b905081810360208301526135bb8189612a7a565b905081810360408301526135cf8188612a7a565b905081810360608301526135e38187612a7a565b905081810360808301526135f78186612a7a565b905061360660a08301856129f9565b61361360c0830184612b6a565b98975050505050505050565b7f4e487b7100000000000000000000000000000000000000000000000000000000600052602260045260246000fd5b6000600282049050600182168061366657607f821691505b6020821081036136795761367861361f565b5b50919050565b600081905092915050565b600061369582612a23565b61369f818561367f565b93506136af818560208601612a3f565b80840191505092915050565b60006136c7828461368a565b915081905092915050565b7f4365727469666963617465206e6f7420666f756e640000000000000000000000600082015250565b6000613708601583612a2e565b9150613713826136d2565b602082019050919050565b60006020820190508181036000830152613737816136fb565b9050919050565b7f416c7265616479207265766f6b65640000000000000000000000000000000000600082015250565b6000613774600f83612a2e565b915061377f8261373e565b602082019050919050565b600060208201905081810360008301526137a381613767565b9050919050565b7f4365727469666963617465732061726520536f756c626f756e6420616e64206360008201527f616e6e6f74206265207472616e73666572726564000000000000000000000000602082015250565b6000613806603483612a2e565b9150613811826137aa565b604082019050919050565b60006020820190508181036000830152613835816137f9565b9050919050565b7f4c656e677468206d69736d617463680000000000000000000000000000000000600082015250565b6000613872600f83612a2e565b915061387d8261383c565b602082019050919050565b600060208201905081810360008301526138a181613865565b9050919050565b7f4e487b7100000000000000000000000000000000000000000000000000000000600052603260045260246000fd5b7f436572746966696361746520494420616c726561647920657869737473000000600082015250565b600061390d601d83612a2e565b9150613918826138d7565b602082019050919050565b6000602082019050818103600083015261393c81613900565b9050919050565b7f4e487b7100000000000000000000000000000000000000000000000000000000600052601160045260246000fd5b600061397d82612ad5565b91507fffffffffffffffffffffffffffffffffffffffffffffffffffffffffffffffff82036139af576139ae613943565b5b600182019050919050565b60008190508160005260206000209050919050565b60006020601f8301049050919050565b600082821b905092915050565b600060088302613a1c7fffffffffffffffffffffffffffffffffffffffffffffffffffffffffffffffff826139df565b613a2686836139df565b95508019841693508086168417925050509392505050565b6000819050919050565b6000613a63613a5e613a5984612ad5565b613a3e565b612ad5565b9050919050565b6000819050919050565b613a7d83613a48565b613a91613a8982613a6a565b8484546139ec565b825550505050565b600090565b613aa6613a99565b613ab1818484613a74565b505050565b5b81811015613ad557613aca600082613a9e565b600181019050613ab7565b5050565b601f821115613b1a57613aeb816139ba565b613af4846139cf565b81016020851015613b03578190505b613b17613b0f856139cf565b830182613ab6565b50505b505050565b600082821c905092915050565b6000613b3d60001984600802613b1f565b1980831691505092915050565b6000613b568383613b2c565b9150826002028217905092915050565b613b6f82612a23565b67ffffffffffffffff811115613b8857613b87612c0a565b5b613b92825461364e565b613b9d828285613ad9565b600060209050601f831160018114613bd05760008415613bbe578287015190505b613bc88582613b4a565b865550613c30565b601f198416613bde866139ba565b60005b82811015613c0657848901518255600182019150602085019450602081019050613be1565b86831015613c235784890151613c1f601f891682613b2c565b8355505b6001600288020188555050505b505050505050565b60006040820190508181036000830152613c528185612a7a565b9050613c616020830184612b6a565b9392505050565b6000613c74828561368a565b9150613c80828461368a565b91508190509392505050565b6000604082019050613ca16000830185612b6a565b613cae6020830184612e34565b9392505050565b7f4e487b7100000000000000000000000000000000000000000000000000000000600052601260045260246000fd5b600081519050919050565b600082825260208201905092915050565b6000613d0b82613ce4565b613d158185613cef565b9350613d25818560208601612a3f565b613d2e81612a69565b840191505092915050565b6000608082019050613d4e6000830187612b6a565b613d5b6020830186612b6a565b613d686040830185612e9e565b8181036060830152613d7a8184613d00565b905095945050505050565b600081519050613d9481612994565b92915050565b600060208284031215613db057613daf61295e565b5b6000613dbe84828501613d85565b91505092915050565b6000604082019050613ddc6000830185612b6a565b613de96020830184612e9e565b939250505056fea264697066735822122006e8948805e7818ea1d2ff0bdfd084d7233d74c585ccabc447eaae4c682fe7a164736f6c63430008180033",
  "linkReferences": {},
  "deployedLinkReferences": {}
}